{
    "_format": "hh-sol-artifact-1",
    "contractName": "MultiSend",
    "sourceName": "contracts/MultiSend.sol",
    "abi": [
        {
            "inputs": [],
            "stateMutability": "payable",
            "type": "constructor"
        },
        {
            "anonymous": false,
            "inputs": [
                {
                    "indexed": true,
                    "internalType": "address",
                    "name": "oldOwner",
                    "type": "address"
                },
                {
                    "indexed": true,
                    "internalType": "address",
                    "name": "newOwner",
                    "type": "address"
                }
            ],
            "name": "OwnerSet",
            "type": "event"
        },
        {
            "inputs": [
                {
                    "internalType": "address",
                    "name": "newOwner",
                    "type": "address"
                }
            ],
            "name": "changeOwner",
            "outputs": [],
            "stateMutability": "nonpayable",
            "type": "function"
        },
        {
            "inputs": [],
            "name": "charge",
            "outputs": [],
            "stateMutability": "payable",
            "type": "function"
        },
        {
            "inputs": [],
            "name": "getOwner",
            "outputs": [
                {
                    "internalType": "address",
                    "name": "",
                    "type": "address"
                }
            ],
            "stateMutability": "view",
            "type": "function"
        },
        {
            "inputs": [
                {
                    "internalType": "address payable[]",
                    "name": "addrs",
                    "type": "address[]"
                },
                {
                    "internalType": "uint256[]",
                    "name": "amnts",
                    "type": "uint256[]"
                }
            ],
            "name": "withdrawls",
            "outputs": [],
            "stateMutability": "payable",
            "type": "function"
        }
    ],
    "bytecode": "0x6080604052336000806101000a81548173ffffffffffffffffffffffffffffffffffffffff021916908373ffffffffffffffffffffffffffffffffffffffff16021790555060008054906101000a900473ffffffffffffffffffffffffffffffffffffffff1673ffffffffffffffffffffffffffffffffffffffff16600073ffffffffffffffffffffffffffffffffffffffff167f342827c97908e5e2f71151c08502a66d44b6f758e3ac2f1de95f02eb95f0a73560405160405180910390a334600181905550610c13806100d56000396000f3fe60806040526004361061003f5760003560e01c80635516191314610044578063893d20e81461004e578063a6f9dae114610079578063c0722f37146100a2575b600080fd5b61004c6100be565b005b34801561005a57600080fd5b50610063610167565b6040516100709190610904565b60405180910390f35b34801561008557600080fd5b506100a0600480360381019061009b9190610754565b610190565b005b6100bc60048036038101906100b7919061077d565b6102db565b005b60008054906101000a900473ffffffffffffffffffffffffffffffffffffffff1673ffffffffffffffffffffffffffffffffffffffff163373ffffffffffffffffffffffffffffffffffffffff161461014c576040517f08c379a00000000000000000000000000000000000000000000000000000000081526004016101439061091f565b60405180910390fd5b346001600082825461015e9190610a19565b92505081905550565b60008060009054906101000a900473ffffffffffffffffffffffffffffffffffffffff16905090565b60008054906101000a900473ffffffffffffffffffffffffffffffffffffffff1673ffffffffffffffffffffffffffffffffffffffff163373ffffffffffffffffffffffffffffffffffffffff161461021e576040517f08c379a00000000000000000000000000000000000000000000000000000000081526004016102159061091f565b60405180910390fd5b8073ffffffffffffffffffffffffffffffffffffffff1660008054906101000a900473ffffffffffffffffffffffffffffffffffffffff1673ffffffffffffffffffffffffffffffffffffffff167f342827c97908e5e2f71151c08502a66d44b6f758e3ac2f1de95f02eb95f0a73560405160405180910390a3806000806101000a81548173ffffffffffffffffffffffffffffffffffffffff021916908373ffffffffffffffffffffffffffffffffffffffff16021790555050565b60008054906101000a900473ffffffffffffffffffffffffffffffffffffffff1673ffffffffffffffffffffffffffffffffffffffff163373ffffffffffffffffffffffffffffffffffffffff1614610369576040517f08c379a00000000000000000000000000000000000000000000000000000000081526004016103609061091f565b60405180910390fd5b346001600082825461037b9190610a19565b9250508190555080518251146103c6576040517f08c379a00000000000000000000000000000000000000000000000000000000081526004016103bd9061095f565b60405180910390fd5b60006103d182610520565b9050806001541015610418576040517f08c379a000000000000000000000000000000000000000000000000000000000815260040161040f9061093f565b60405180910390fd5b60005b835181101561051a5782818151811061045d577f4e487b7100000000000000000000000000000000000000000000000000000000600052603260045260246000fd5b6020026020010151600160008282546104769190610a6f565b925050819055506105078482815181106104b9577f4e487b7100000000000000000000000000000000000000000000000000000000600052603260045260246000fd5b60200260200101518483815181106104fa577f4e487b7100000000000000000000000000000000000000000000000000000000600052603260045260246000fd5b602002602001015161059e565b808061051290610af1565b91505061041b565b50505050565b6000806000905060005b83518110156105945783818151811061056c577f4e487b7100000000000000000000000000000000000000000000000000000000600052603260045260246000fd5b60200260200101518261057f9190610a19565b9150808061058c90610af1565b91505061052a565b5080915050919050565b8173ffffffffffffffffffffffffffffffffffffffff166108fc829081150290604051600060405180830381858888f193505050501580156105e4573d6000803e3d6000fd5b505050565b60006105fc6105f7846109b0565b61097f565b9050808382526020820190508285602086028201111561061b57600080fd5b60005b8581101561064b578161063188826106d6565b84526020840193506020830192505060018101905061061e565b5050509392505050565b6000610668610663846109dc565b61097f565b9050808382526020820190508285602086028201111561068757600080fd5b60005b858110156106b7578161069d888261073f565b84526020840193506020830192505060018101905061068a565b5050509392505050565b6000813590506106d081610b98565b92915050565b6000813590506106e581610baf565b92915050565b600082601f8301126106fc57600080fd5b813561070c8482602086016105e9565b91505092915050565b600082601f83011261072657600080fd5b8135610736848260208601610655565b91505092915050565b60008135905061074e81610bc6565b92915050565b60006020828403121561076657600080fd5b6000610774848285016106c1565b91505092915050565b6000806040838503121561079057600080fd5b600083013567ffffffffffffffff8111156107aa57600080fd5b6107b6858286016106eb565b925050602083013567ffffffffffffffff8111156107d357600080fd5b6107df85828601610715565b9150509250929050565b6107f281610aa3565b82525050565b6000610805601383610a08565b91507f43616c6c6572206973206e6f74206f776e6572000000000000000000000000006000830152602082019050919050565b6000610845602583610a08565b91507f5468652076616c7565206973206e6f742073756666696369656e74206f72206560008301527f78636565640000000000000000000000000000000000000000000000000000006020830152604082019050919050565b60006108ab602a83610a08565b91507f546865206c656e677468206f662074776f2061727261792073686f756c64206260008301527f65207468652073616d65000000000000000000000000000000000000000000006020830152604082019050919050565b600060208201905061091960008301846107e9565b92915050565b60006020820190508181036000830152610938816107f8565b9050919050565b6000602082019050818103600083015261095881610838565b9050919050565b600060208201905081810360008301526109788161089e565b9050919050565b6000604051905081810181811067ffffffffffffffff821117156109a6576109a5610b69565b5b8060405250919050565b600067ffffffffffffffff8211156109cb576109ca610b69565b5b602082029050602081019050919050565b600067ffffffffffffffff8211156109f7576109f6610b69565b5b602082029050602081019050919050565b600082825260208201905092915050565b6000610a2482610ae7565b9150610a2f83610ae7565b9250827fffffffffffffffffffffffffffffffffffffffffffffffffffffffffffffffff03821115610a6457610a63610b3a565b5b828201905092915050565b6000610a7a82610ae7565b9150610a8583610ae7565b925082821015610a9857610a97610b3a565b5b828203905092915050565b6000610aae82610ac7565b9050919050565b6000610ac082610ac7565b9050919050565b600073ffffffffffffffffffffffffffffffffffffffff82169050919050565b6000819050919050565b6000610afc82610ae7565b91507fffffffffffffffffffffffffffffffffffffffffffffffffffffffffffffffff821415610b2f57610b2e610b3a565b5b600182019050919050565b7f4e487b7100000000000000000000000000000000000000000000000000000000600052601160045260246000fd5b7f4e487b7100000000000000000000000000000000000000000000000000000000600052604160045260246000fd5b610ba181610aa3565b8114610bac57600080fd5b50565b610bb881610ab5565b8114610bc357600080fd5b50565b610bcf81610ae7565b8114610bda57600080fd5b5056fea26469706673582212204fae8d0915c49769d225dfdb507901652058b89f361116174a68567d9cabf4f164736f6c63430008000033",
    "linkReferences": {},
    "deployedLinkReferences": {}
}